{
  "_format": "hh-sol-artifact-1",
  "contractName": "BoobyBirds",
  "sourceName": "contracts/BoobyBirds.sol",
  "abi": [
    {
      "inputs": [
        {
          "internalType": "string",
          "name": "_initBaseURI",
          "type": "string"
        }
      ],
      "stateMutability": "nonpayable",
      "type": "constructor"
    },
    {
      "inputs": [],
      "name": "ApprovalCallerNotOwnerNorApproved",
      "type": "error"
    },
    {
      "inputs": [],
      "name": "ApprovalQueryForNonexistentToken",
      "type": "error"
    },
    {
      "inputs": [],
      "name": "BalanceQueryForZeroAddress",
      "type": "error"
    },
    {
      "inputs": [],
      "name": "MintERC2309QuantityExceedsLimit",
      "type": "error"
    },
    {
      "inputs": [],
      "name": "MintToZeroAddress",
      "type": "error"
    },
    {
      "inputs": [],
      "name": "MintZeroQuantity",
      "type": "error"
    },
    {
      "inputs": [
        {
          "internalType": "address",
          "name": "operator",
          "type": "address"
        }
      ],
      "name": "OperatorNotAllowed",
      "type": "error"
    },
    {
      "inputs": [],
      "name": "OwnerQueryForNonexistentToken",
      "type": "error"
    },
    {
      "inputs": [],
      "name": "OwnershipNotInitializedForExtraData",
      "type": "error"
    },
    {
      "inputs": [],
      "name": "TransferCallerNotOwnerNorApproved",
      "type": "error"
    },
    {
      "inputs": [],
      "name": "TransferFromIncorrectOwner",
      "type": "error"
    },
    {
      "inputs": [],
      "name": "TransferToNonERC721ReceiverImplementer",
      "type": "error"
    },
    {
      "inputs": [],
      "name": "TransferToZeroAddress",
      "type": "error"
    },
    {
      "inputs": [],
      "name": "URIQueryForNonexistentToken",
      "type": "error"
    },
    {
      "anonymous": false,
      "inputs": [
        {
          "indexed": true,
          "internalType": "address",
          "name": "owner",
          "type": "address"
        },
        {
          "indexed": true,
          "internalType": "address",
          "name": "approved",
          "type": "address"
        },
        {
          "indexed": true,
          "internalType": "uint256",
          "name": "tokenId",
          "type": "uint256"
        }
      ],
      "name": "Approval",
      "type": "event"
    },
    {
      "anonymous": false,
      "inputs": [
        {
          "indexed": true,
          "internalType": "address",
          "name": "owner",
          "type": "address"
        },
        {
          "indexed": true,
          "internalType": "address",
          "name": "operator",
          "type": "address"
        },
        {
          "indexed": false,
          "internalType": "bool",
          "name": "approved",
          "type": "bool"
        }
      ],
      "name": "ApprovalForAll",
      "type": "event"
    },
    {
      "anonymous": false,
      "inputs": [
        {
          "indexed": true,
          "internalType": "uint256",
          "name": "fromTokenId",
          "type": "uint256"
        },
        {
          "indexed": false,
          "internalType": "uint256",
          "name": "toTokenId",
          "type": "uint256"
        },
        {
          "indexed": true,
          "internalType": "address",
          "name": "from",
          "type": "address"
        },
        {
          "indexed": true,
          "internalType": "address",
          "name": "to",
          "type": "address"
        }
      ],
      "name": "ConsecutiveTransfer",
      "type": "event"
    },
    {
      "anonymous": false,
      "inputs": [
        {
          "indexed": true,
          "internalType": "address",
          "name": "previousOwner",
          "type": "address"
        },
        {
          "indexed": true,
          "internalType": "address",
          "name": "newOwner",
          "type": "address"
        }
      ],
      "name": "OwnershipTransferred",
      "type": "event"
    },
    {
      "anonymous": false,
      "inputs": [
        {
          "indexed": true,
          "internalType": "address",
          "name": "from",
          "type": "address"
        },
        {
          "indexed": true,
          "internalType": "address",
          "name": "to",
          "type": "address"
        },
        {
          "indexed": true,
          "internalType": "uint256",
          "name": "tokenId",
          "type": "uint256"
        }
      ],
      "name": "Transfer",
      "type": "event"
    },
    {
      "inputs": [],
      "name": "MaxperWallet_OGMint",
      "outputs": [
        {
          "internalType": "uint256",
          "name": "",
          "type": "uint256"
        }
      ],
      "stateMutability": "view",
      "type": "function"
    },
    {
      "inputs": [],
      "name": "MaxperWallet_PublicMint",
      "outputs": [
        {
          "internalType": "uint256",
          "name": "",
          "type": "uint256"
        }
      ],
      "stateMutability": "view",
      "type": "function"
    },
    {
      "inputs": [],
      "name": "MaxperWallet_Whitelistmint",
      "outputs": [
        {
          "internalType": "uint256",
          "name": "",
          "type": "uint256"
        }
      ],
      "stateMutability": "view",
      "type": "function"
    },
    {
      "inputs": [
        {
          "internalType": "uint256",
          "name": "tokens",
          "type": "uint256"
        },
        {
          "internalType": "bytes32[]",
          "name": "merkleProof",
          "type": "bytes32[]"
        }
      ],
      "name": "OGMint",
      "outputs": [],
      "stateMutability": "nonpayable",
      "type": "function"
    },
    {
      "inputs": [],
      "name": "OGMint_Live",
      "outputs": [
        {
          "internalType": "bool",
          "name": "",
          "type": "bool"
        }
      ],
      "stateMutability": "view",
      "type": "function"
    },
    {
      "inputs": [],
      "name": "OPERATOR_FILTER_REGISTRY",
      "outputs": [
        {
          "internalType": "contract IOperatorFilterRegistry",
          "name": "",
          "type": "address"
        }
      ],
      "stateMutability": "view",
      "type": "function"
    },
    {
      "inputs": [
        {
          "internalType": "uint256",
          "name": "tokens",
          "type": "uint256"
        },
        {
          "internalType": "bytes32[]",
          "name": "merkleProof",
          "type": "bytes32[]"
        }
      ],
      "name": "PublicMint",
      "outputs": [],
      "stateMutability": "payable",
      "type": "function"
    },
    {
      "inputs": [],
      "name": "PublicMintCost",
      "outputs": [
        {
          "internalType": "uint256",
          "name": "",
          "type": "uint256"
        }
      ],
      "stateMutability": "view",
      "type": "function"
    },
    {
      "inputs": [],
      "name": "PublicMint_Live",
      "outputs": [
        {
          "internalType": "bool",
          "name": "",
          "type": "bool"
        }
      ],
      "stateMutability": "view",
      "type": "function"
    },
    {
      "inputs": [],
      "name": "WhiteListMintCost",
      "outputs": [
        {
          "internalType": "uint256",
          "name": "",
          "type": "uint256"
        }
      ],
      "stateMutability": "view",
      "type": "function"
    },
    {
      "inputs": [],
      "name": "WhitelistMint_Live",
      "outputs": [
        {
          "internalType": "bool",
          "name": "",
          "type": "bool"
        }
      ],
      "stateMutability": "view",
      "type": "function"
    },
    {
      "inputs": [
        {
          "internalType": "uint256",
          "name": "tokens",
          "type": "uint256"
        },
        {
          "internalType": "bytes32[]",
          "name": "merkleProof",
          "type": "bytes32[]"
        }
      ],
      "name": "WhitelistedMint",
      "outputs": [],
      "stateMutability": "payable",
      "type": "function"
    },
    {
      "inputs": [
        {
          "internalType": "address",
          "name": "operator",
          "type": "address"
        },
        {
          "internalType": "uint256",
          "name": "tokenId",
          "type": "uint256"
        }
      ],
      "name": "approve",
      "outputs": [],
      "stateMutability": "payable",
      "type": "function"
    },
    {
      "inputs": [
        {
          "internalType": "address",
          "name": "owner",
          "type": "address"
        }
      ],
      "name": "balanceOf",
      "outputs": [
        {
          "internalType": "uint256",
          "name": "",
          "type": "uint256"
        }
      ],
      "stateMutability": "view",
      "type": "function"
    },
    {
      "inputs": [],
      "name": "baseExtension",
      "outputs": [
        {
          "internalType": "string",
          "name": "",
          "type": "string"
        }
      ],
      "stateMutability": "view",
      "type": "function"
    },
    {
      "inputs": [],
      "name": "baseURI",
      "outputs": [
        {
          "internalType": "string",
          "name": "",
          "type": "string"
        }
      ],
      "stateMutability": "view",
      "type": "function"
    },
    {
      "inputs": [
        {
          "internalType": "uint256",
          "name": "tokenId",
          "type": "uint256"
        }
      ],
      "name": "getApproved",
      "outputs": [
        {
          "internalType": "address",
          "name": "",
          "type": "address"
        }
      ],
      "stateMutability": "view",
      "type": "function"
    },
    {
      "inputs": [
        {
          "internalType": "uint256",
          "name": "_mintAmount",
          "type": "uint256"
        },
        {
          "internalType": "address",
          "name": "destination",
          "type": "address"
        }
      ],
      "name": "gift",
      "outputs": [],
      "stateMutability": "nonpayable",
      "type": "function"
    },
    {
      "inputs": [
        {
          "internalType": "address",
          "name": "owner",
          "type": "address"
        },
        {
          "internalType": "address",
          "name": "operator",
          "type": "address"
        }
      ],
      "name": "isApprovedForAll",
      "outputs": [
        {
          "internalType": "bool",
          "name": "",
          "type": "bool"
        }
      ],
      "stateMutability": "view",
      "type": "function"
    },
    {
      "inputs": [],
      "name": "maxSupply",
      "outputs": [
        {
          "internalType": "uint256",
          "name": "",
          "type": "uint256"
        }
      ],
      "stateMutability": "view",
      "type": "function"
    },
    {
      "inputs": [],
      "name": "merkleRoot_OG",
      "outputs": [
        {
          "internalType": "bytes32",
          "name": "",
          "type": "bytes32"
        }
      ],
      "stateMutability": "view",
      "type": "function"
    },
    {
      "inputs": [],
      "name": "merkleRoot_WL",
      "outputs": [
        {
          "internalType": "bytes32",
          "name": "",
          "type": "bytes32"
        }
      ],
      "stateMutability": "view",
      "type": "function"
    },
    {
      "inputs": [],
      "name": "name",
      "outputs": [
        {
          "internalType": "string",
          "name": "",
          "type": "string"
        }
      ],
      "stateMutability": "view",
      "type": "function"
    },
    {
      "inputs": [],
      "name": "notRevealedUri",
      "outputs": [
        {
          "internalType": "string",
          "name": "",
          "type": "string"
        }
      ],
      "stateMutability": "view",
      "type": "function"
    },
    {
      "inputs": [
        {
          "internalType": "address",
          "name": "owner",
          "type": "address"
        }
      ],
      "name": "numberMinted",
      "outputs": [
        {
          "internalType": "uint256",
          "name": "",
          "type": "uint256"
        }
      ],
      "stateMutability": "view",
      "type": "function"
    },
    {
      "inputs": [],
      "name": "owner",
      "outputs": [
        {
          "internalType": "address",
          "name": "",
          "type": "address"
        }
      ],
      "stateMutability": "view",
      "type": "function"
    },
    {
      "inputs": [
        {
          "internalType": "uint256",
          "name": "tokenId",
          "type": "uint256"
        }
      ],
      "name": "ownerOf",
      "outputs": [
        {
          "internalType": "address",
          "name": "",
          "type": "address"
        }
      ],
      "stateMutability": "view",
      "type": "function"
    },
    {
      "inputs": [
        {
          "internalType": "bool",
          "name": "_state",
          "type": "bool"
        }
      ],
      "name": "pause",
      "outputs": [],
      "stateMutability": "nonpayable",
      "type": "function"
    },
    {
      "inputs": [],
      "name": "paused",
      "outputs": [
        {
          "internalType": "bool",
          "name": "",
          "type": "bool"
        }
      ],
      "stateMutability": "view",
      "type": "function"
    },
    {
      "inputs": [],
      "name": "renounceOwnership",
      "outputs": [],
      "stateMutability": "nonpayable",
      "type": "function"
    },
    {
      "inputs": [
        {
          "internalType": "bool",
          "name": "_state",
          "type": "bool"
        }
      ],
      "name": "reveal",
      "outputs": [],
      "stateMutability": "nonpayable",
      "type": "function"
    },
    {
      "inputs": [],
      "name": "revealed",
      "outputs": [
        {
          "internalType": "bool",
          "name": "",
          "type": "bool"
        }
      ],
      "stateMutability": "view",
      "type": "function"
    },
    {
      "inputs": [
        {
          "internalType": "address",
          "name": "from",
          "type": "address"
        },
        {
          "internalType": "address",
          "name": "to",
          "type": "address"
        },
        {
          "internalType": "uint256",
          "name": "tokenId",
          "type": "uint256"
        }
      ],
      "name": "safeTransferFrom",
      "outputs": [],
      "stateMutability": "payable",
      "type": "function"
    },
    {
      "inputs": [
        {
          "internalType": "address",
          "name": "from",
          "type": "address"
        },
        {
          "internalType": "address",
          "name": "to",
          "type": "address"
        },
        {
          "internalType": "uint256",
          "name": "tokenId",
          "type": "uint256"
        },
        {
          "internalType": "bytes",
          "name": "data",
          "type": "bytes"
        }
      ],
      "name": "safeTransferFrom",
      "outputs": [],
      "stateMutability": "payable",
      "type": "function"
    },
    {
      "inputs": [
        {
          "internalType": "address",
          "name": "operator",
          "type": "address"
        },
        {
          "internalType": "bool",
          "name": "approved",
          "type": "bool"
        }
      ],
      "name": "setApprovalForAll",
      "outputs": [],
      "stateMutability": "nonpayable",
      "type": "function"
    },
    {
      "inputs": [
        {
          "internalType": "string",
          "name": "_newBaseExtension",
          "type": "string"
        }
      ],
      "name": "setBaseExtension",
      "outputs": [],
      "stateMutability": "nonpayable",
      "type": "function"
    },
    {
      "inputs": [
        {
          "internalType": "string",
          "name": "_newBaseURI",
          "type": "string"
        }
      ],
      "name": "setBaseURI",
      "outputs": [],
      "stateMutability": "nonpayable",
      "type": "function"
    },
    {
      "inputs": [
        {
          "internalType": "uint256",
          "name": "_limit",
          "type": "uint256"
        }
      ],
      "name": "setMaxperWallet_OGMint",
      "outputs": [],
      "stateMutability": "nonpayable",
      "type": "function"
    },
    {
      "inputs": [
        {
          "internalType": "uint256",
          "name": "_limit",
          "type": "uint256"
        }
      ],
      "name": "setMaxperWallet_PublicMint",
      "outputs": [],
      "stateMutability": "nonpayable",
      "type": "function"
    },
    {
      "inputs": [
        {
          "internalType": "uint256",
          "name": "_limit",
          "type": "uint256"
        }
      ],
      "name": "setMaxperWallet_WhitelistMint",
      "outputs": [],
      "stateMutability": "nonpayable",
      "type": "function"
    },
    {
      "inputs": [
        {
          "internalType": "uint256",
          "name": "_newsupply",
          "type": "uint256"
        }
      ],
      "name": "setMaxsupply",
      "outputs": [],
      "stateMutability": "nonpayable",
      "type": "function"
    },
    {
      "inputs": [
        {
          "internalType": "bytes32",
          "name": "_merkleRoot",
          "type": "bytes32"
        }
      ],
      "name": "setMerkleRoot_OG",
      "outputs": [],
      "stateMutability": "nonpayable",
      "type": "function"
    },
    {
      "inputs": [
        {
          "internalType": "bytes32",
          "name": "_merkleRoot",
          "type": "bytes32"
        }
      ],
      "name": "setMerkleRoot_WL",
      "outputs": [],
      "stateMutability": "nonpayable",
      "type": "function"
    },
    {
      "inputs": [
        {
          "internalType": "string",
          "name": "_notRevealedURI",
          "type": "string"
        }
      ],
      "name": "setNotRevealedURI",
      "outputs": [],
      "stateMutability": "nonpayable",
      "type": "function"
    },
    {
      "inputs": [
        {
          "internalType": "uint256",
          "name": "_newCost",
          "type": "uint256"
        }
      ],
      "name": "setPublicMintCost",
      "outputs": [],
      "stateMutability": "nonpayable",
      "type": "function"
    },
    {
      "inputs": [
        {
          "internalType": "uint256",
          "name": "_newCost",
          "type": "uint256"
        }
      ],
      "name": "setWhiteListMintCost",
      "outputs": [],
      "stateMutability": "nonpayable",
      "type": "function"
    },
    {
      "inputs": [
        {
          "internalType": "bytes4",
          "name": "interfaceId",
          "type": "bytes4"
        }
      ],
      "name": "supportsInterface",
      "outputs": [
        {
          "internalType": "bool",
          "name": "",
          "type": "bool"
        }
      ],
      "stateMutability": "view",
      "type": "function"
    },
    {
      "inputs": [],
      "name": "symbol",
      "outputs": [
        {
          "internalType": "string",
          "name": "",
          "type": "string"
        }
      ],
      "stateMutability": "view",
      "type": "function"
    },
    {
      "inputs": [
        {
          "internalType": "bool",
          "name": "_state",
          "type": "bool"
        }
      ],
      "name": "toggle_OGMint_Live",
      "outputs": [],
      "stateMutability": "nonpayable",
      "type": "function"
    },
    {
      "inputs": [
        {
          "internalType": "bool",
          "name": "_state",
          "type": "bool"
        }
      ],
      "name": "toggle_PublicMint_Live",
      "outputs": [],
      "stateMutability": "nonpayable",
      "type": "function"
    },
    {
      "inputs": [
        {
          "internalType": "bool",
          "name": "_state",
          "type": "bool"
        }
      ],
      "name": "toggle_WhitelistMint_Live",
      "outputs": [],
      "stateMutability": "nonpayable",
      "type": "function"
    },
    {
      "inputs": [
        {
          "internalType": "uint256",
          "name": "tokenId",
          "type": "uint256"
        }
      ],
      "name": "tokenURI",
      "outputs": [
        {
          "internalType": "string",
          "name": "",
          "type": "string"
        }
      ],
      "stateMutability": "view",
      "type": "function"
    },
    {
      "inputs": [],
      "name": "totalSupply",
      "outputs": [
        {
          "internalType": "uint256",
          "name": "",
          "type": "uint256"
        }
      ],
      "stateMutability": "view",
      "type": "function"
    },
    {
      "inputs": [
        {
          "internalType": "address",
          "name": "from",
          "type": "address"
        },
        {
          "internalType": "address",
          "name": "to",
          "type": "address"
        },
        {
          "internalType": "uint256",
          "name": "tokenId",
          "type": "uint256"
        }
      ],
      "name": "transferFrom",
      "outputs": [],
      "stateMutability": "payable",
      "type": "function"
    },
    {
      "inputs": [
        {
          "internalType": "address",
          "name": "newOwner",
          "type": "address"
        }
      ],
      "name": "transferOwnership",
      "outputs": [],
      "stateMutability": "nonpayable",
      "type": "function"
    },
    {
      "inputs": [],
      "name": "withdraw",
      "outputs": [],
      "stateMutability": "payable",
      "type": "function"
    }
  ],
  "bytecode": "0x60c06040526005608090815264173539b7b760d91b60a052600b9062000026908262000405565b50666a94d74f430000600d55667c585087238000600e55610c1c600f556004601081905560016011556012556013805464ffffffffff1916640101000001179055600060148190556015553480156200007e57600080fd5b5060405162002fe838038062002fe8833981016040819052620000a191620004d1565b733cc6cdda760b79bafa08df41ecfa224f810dceb660016040518060400160405280600b81526020016a426f6f627920426972647360a81b8152506040518060400160405280600a815260200169426f6f6279426972647360b01b815250816002908162000110919062000405565b5060036200011f828262000405565b5050600160005550620001323362000291565b60016009556daaeb6d7670e522a718067333cd4e3b156200027c578015620001ca57604051633e9f1edf60e11b81523060048201526001600160a01b03831660248201526daaeb6d7670e522a718067333cd4e90637d3e3dbe906044015b600060405180830381600087803b158015620001ab57600080fd5b505af1158015620001c0573d6000803e3d6000fd5b505050506200027c565b6001600160a01b038216156200021b5760405163a0af290360e01b81523060048201526001600160a01b03831660248201526daaeb6d7670e522a718067333cd4e9063a0af29039060440162000190565b604051632210724360e11b81523060048201526daaeb6d7670e522a718067333cd4e90634420e48690602401600060405180830381600087803b1580156200026257600080fd5b505af115801562000277573d6000803e3d6000fd5b505050505b506200028a905081620002e3565b50620005a6565b600880546001600160a01b038381166001600160a01b0319831681179093556040519116919082907f8be0079c531659141344cd1fd0a4f28419497f9722a3daafe3b4186f6b6457e090600090a35050565b620002ed620002ff565b600a620002fb828262000405565b5050565b6008546001600160a01b031633146200035e5760405162461bcd60e51b815260206004820181905260248201527f4f776e61626c653a2063616c6c6572206973206e6f7420746865206f776e6572604482015260640160405180910390fd5b565b634e487b7160e01b600052604160045260246000fd5b600181811c908216806200038b57607f821691505b602082108103620003ac57634e487b7160e01b600052602260045260246000fd5b50919050565b601f8211156200040057600081815260208120601f850160051c81016020861015620003db5750805b601f850160051c820191505b81811015620003fc57828155600101620003e7565b5050505b505050565b81516001600160401b0381111562000421576200042162000360565b620004398162000432845462000376565b84620003b2565b602080601f831160018114620004715760008415620004585750858301515b600019600386901b1c1916600185901b178555620003fc565b600085815260208120601f198616915b82811015620004a25788860151825594840194600190910190840162000481565b5085821015620004c15787850151600019600388901b60f8161c191681555b5050505050600190811b01905550565b60006020808385031215620004e557600080fd5b82516001600160401b0380821115620004fd57600080fd5b818501915085601f8301126200051257600080fd5b81518181111562000527576200052762000360565b604051601f8201601f19908116603f0116810190838211818310171562000552576200055262000360565b8160405282815288868487010111156200056b57600080fd5b600093505b828410156200058f578484018601518185018701529285019262000570565b600086848301015280965050505050505092915050565b612a3280620005b66000396000f3fe60806040526004361061036b5760003560e01c80636c16611e116101c6578063b88d4fde116100f7578063da3ef23f11610095578063ec42b6681161006f578063ec42b66814610933578063f2c4ce1e14610953578063f2fde38b14610973578063fe6525cc1461099357600080fd5b8063da3ef23f146108d3578063dc33e681146108f3578063e985e9c51461091357600080fd5b8063c87b56dd116100d1578063c87b56dd14610867578063d0c6227214610887578063d5abeb01146108a7578063d6f67b25146108bd57600080fd5b8063b88d4fde1461081f578063b98ab0a114610832578063c66828621461085257600080fd5b80638da5cb5b1161016457806395d89b411161013e57806395d89b41146107b35780639ac353a5146107c8578063a22cb465146107e9578063a79a67681461080957600080fd5b80638da5cb5b146107555780638ddc6fa114610773578063940cd05b1461079357600080fd5b8063715018a6116101a0578063715018a6146106de57806380eae578146106f3578063811150081461071357806383a076be1461073557600080fd5b80636c16611e1461067e5780636c8b88651461069e57806370a08231146106be57600080fd5b80633ccfd60b116102a05780635fe77fa41161023e5780636352211e116102185780636352211e14610620578063664ad56714610640578063676ba6e3146106535780636c0360eb1461066957600080fd5b80635fe77fa4146105d757806361249339146105f7578063613cb4691461060a57600080fd5b80634ae6157d1161027a5780634ae6157d14610568578063518302271461057e57806355f804b31461059d5780635c975abb146105bd57600080fd5b80633ccfd60b1461052b57806341f434341461053357806342842e0e1461055557600080fd5b80630d20e7e51161030d5780631dc233f4116102e75780631dc233f4146104c257806323b872dd146104e25780632932d1b1146104f5578063370e86d01461051557600080fd5b80630d20e7e51461046d578063149835a01461048d57806318160ddd146104ad57600080fd5b806306fdde031161034957806306fdde03146103eb578063081812fc1461040d578063081c8c4414610445578063095ea7b31461045a57600080fd5b806301ffc9a71461037057806302329a29146103a557806304c0e333146103c7575b600080fd5b34801561037c57600080fd5b5061039061038b366004612292565b6109b3565b60405190151581526020015b60405180910390f35b3480156103b157600080fd5b506103c56103c03660046122bd565b610a05565b005b3480156103d357600080fd5b506103dd60125481565b60405190815260200161039c565b3480156103f757600080fd5b50610400610a20565b60405161039c919061232a565b34801561041957600080fd5b5061042d61042836600461233d565b610ab2565b6040516001600160a01b03909116815260200161039c565b34801561045157600080fd5b50610400610af6565b6103c5610468366004612372565b610b84565b34801561047957600080fd5b506103c56104883660046122bd565b610b9d565b34801561049957600080fd5b506103c56104a836600461233d565b610bc3565b3480156104b957600080fd5b506103dd610bd0565b3480156104ce57600080fd5b506013546103909062010000900460ff1681565b6103c56104f036600461239c565b610bde565b34801561050157600080fd5b506103c56105103660046123d8565b610c09565b34801561052157600080fd5b506103dd60155481565b6103c5610e96565b34801561053f57600080fd5b5061042d6daaeb6d7670e522a718067333cd4e81565b6103c561056336600461239c565b610f08565b34801561057457600080fd5b506103dd60105481565b34801561058a57600080fd5b5060135461039090610100900460ff1681565b3480156105a957600080fd5b506103c56105b83660046124e3565b610f2d565b3480156105c957600080fd5b506013546103909060ff1681565b3480156105e357600080fd5b506103c56105f236600461233d565b610f45565b6103c56106053660046123d8565b610f52565b34801561061657600080fd5b506103dd600e5481565b34801561062c57600080fd5b5061042d61063b36600461233d565b611204565b6103c561064e3660046123d8565b61120f565b34801561065f57600080fd5b506103dd600d5481565b34801561067557600080fd5b50610400611456565b34801561068a57600080fd5b506103c561069936600461233d565b611463565b3480156106aa57600080fd5b506103c56106b93660046122bd565b611470565b3480156106ca57600080fd5b506103dd6106d936600461252c565b611494565b3480156106ea57600080fd5b506103c56114e3565b3480156106ff57600080fd5b506103c561070e36600461233d565b6114f5565b34801561071f57600080fd5b5060135461039090640100000000900460ff1681565b34801561074157600080fd5b506103c5610750366004612547565b611502565b34801561076157600080fd5b506008546001600160a01b031661042d565b34801561077f57600080fd5b506103c561078e36600461233d565b611579565b34801561079f57600080fd5b506103c56107ae3660046122bd565b611586565b3480156107bf57600080fd5b506104006115a8565b3480156107d457600080fd5b50601354610390906301000000900460ff1681565b3480156107f557600080fd5b506103c5610804366004612573565b6115b7565b34801561081557600080fd5b506103dd60115481565b6103c561082d3660046125aa565b6115cb565b34801561083e57600080fd5b506103c561084d3660046122bd565b6115f8565b34801561085e57600080fd5b50610400611620565b34801561087357600080fd5b5061040061088236600461233d565b61162d565b34801561089357600080fd5b506103c56108a236600461233d565b6117a2565b3480156108b357600080fd5b506103dd600f5481565b3480156108c957600080fd5b506103dd60145481565b3480156108df57600080fd5b506103c56108ee3660046124e3565b6117af565b3480156108ff57600080fd5b506103dd61090e36600461252c565b6117c3565b34801561091f57600080fd5b5061039061092e366004612626565b6117ce565b34801561093f57600080fd5b506103c561094e36600461233d565b6117fc565b34801561095f57600080fd5b506103c561096e3660046124e3565b611809565b34801561097f57600080fd5b506103c561098e36600461252c565b61181d565b34801561099f57600080fd5b506103c56109ae36600461233d565b611896565b60006301ffc9a760e01b6001600160e01b0319831614806109e457506380ac58cd60e01b6001600160e01b03198316145b806109ff5750635b5e139f60e01b6001600160e01b03198316145b92915050565b610a0d6118a3565b6013805460ff1916911515919091179055565b606060028054610a2f90612650565b80601f0160208091040260200160405190810160405280929190818152602001828054610a5b90612650565b8015610aa85780601f10610a7d57610100808354040283529160200191610aa8565b820191906000526020600020905b815481529060010190602001808311610a8b57829003601f168201915b5050505050905090565b6000610abd826118fd565b610ada576040516333d1c03960e21b815260040160405180910390fd5b506000908152600660205260409020546001600160a01b031690565b600c8054610b0390612650565b80601f0160208091040260200160405190810160405280929190818152602001828054610b2f90612650565b8015610b7c5780601f10610b5157610100808354040283529160200191610b7c565b820191906000526020600020905b815481529060010190602001808311610b5f57829003601f168201915b505050505081565b81610b8e81611932565b610b9883836119eb565b505050565b610ba56118a3565b6013805491151563010000000263ff00000019909216919091179055565b610bcb6118a3565b600f55565b600154600054036000190190565b826001600160a01b0381163314610bf857610bf833611932565b610c03848484611a8b565b50505050565b610c11611c24565b60135460ff1615610c3d5760405162461bcd60e51b8152600401610c349061268a565b60405180910390fd5b6013546301000000900460ff16610c965760405162461bcd60e51b815260206004820152601d60248201527f6d696e74207068617365206861736e27742073746172746564207965740000006044820152606401610c34565b610cfd82828080602002602001604051908101604052809392919081815260200183836020028082843760009201919091525050601454604051909250610ce2915033906020016126c1565b60405160208183030381529060405280519060200120611c7d565b610d495760405162461bcd60e51b815260206004820152601b60248201527f20596f7520617265206e6f7420696e20746865204f47204c69737400000000006044820152606401610c34565b6000610d53610bd0565b905060115484610d8c610d633390565b6001600160a01b03166000908152600560205260409081902054901c67ffffffffffffffff1690565b610d9691906126f4565b1115610de45760405162461bcd60e51b815260206004820152601c60248201527f4d6178204e465473205065722057616c6c6574206578636565646564000000006044820152606401610c34565b60008411610e045760405162461bcd60e51b8152600401610c3490612707565b600f54610e1185836126f4565b1115610e2f5760405162461bcd60e51b8152600401610c349061273e565b601154841115610e815760405162461bcd60e51b815260206004820152601860248201527f6d6178206d696e742070657220547820657863656564656400000000000000006044820152606401610c34565b610e8b3385611c93565b50610b986001600955565b610e9e6118a3565b610ea6611c24565b604051600090339047908381818185875af1925050503d8060008114610ee8576040519150601f19603f3d011682016040523d82523d6000602084013e610eed565b606091505b5050905080610efb57600080fd5b50610f066001600955565b565b826001600160a01b0381163314610f2257610f2233611932565b610c03848484611cad565b610f356118a3565b600a610f4182826127a8565b5050565b610f4d6118a3565b600d55565b610f5a611c24565b60135460ff1615610f7d5760405162461bcd60e51b8152600401610c349061268a565b60135462010000900460ff16610fcf5760405162461bcd60e51b815260206004820152601760248201527614d85b194812185cdb89dd081cdd185c9d1959081e595d604a1b6044820152606401610c34565b6000610fd9610bd0565b905060008411610ffb5760405162461bcd60e51b8152600401610c3490612707565b600f5461100885836126f4565b11156110265760405162461bcd60e51b8152600401610c349061273e565b600061107484848080602002602001604051908101604052809392919081815260200183836020028082843760009201919091525050601454604051909250610ce2915033906020016126c1565b905080156110be5760115460105461108c91906126f4565b8561109633610d63565b6110a091906126f4565b11156110be5760405162461bcd60e51b8152600401610c3490612868565b600061110c85858080602002602001604051908101604052809392919081815260200183836020028082843760009201919091525050601554604051909250610ce2915033906020016126c1565b905080156111565760125460105461112491906126f4565b8661112e33610d63565b61113891906126f4565b11156111565760405162461bcd60e51b8152600401610c3490612868565b811580611161575080155b1561119b576010548661117333610d63565b61117d91906126f4565b111561119b5760405162461bcd60e51b8152600401610c3490612868565b85600e546111a9919061289f565b3410156111ed5760405162461bcd60e51b8152602060048201526012602482015271696e73756666696369656e742066756e647360701b6044820152606401610c34565b6111f73387611c93565b505050610b986001600955565b60006109ff82611cc8565b611217611c24565b60135460ff161561123a5760405162461bcd60e51b8152600401610c349061268a565b601354640100000000900460ff1661128e5760405162461bcd60e51b815260206004820152601760248201527614d85b194812185cdb89dd081cdd185c9d1959081e595d604a1b6044820152606401610c34565b6112da82828080602002602001604051908101604052809392919081815260200183836020028082843760009201919091525050601554604051909250610ce2915033906020016126c1565b6113265760405162461bcd60e51b815260206004820152601b60248201527f20596f7520617265206e6f7420696e20746865204f47204c69737400000000006044820152606401610c34565b6000611330610bd0565b9050600084116113525760405162461bcd60e51b8152600401610c3490612707565b600f5461135f85836126f4565b111561137d5760405162461bcd60e51b8152600401610c349061273e565b6012548461138a33610d63565b61139491906126f4565b11156113b25760405162461bcd60e51b8152600401610c3490612868565b83600d546113c0919061289f565b3410156114045760405162461bcd60e51b8152602060048201526012602482015271696e73756666696369656e742066756e647360701b6044820152606401610c34565b601254841115610e815760405162461bcd60e51b815260206004820152601f60248201527f6d6178206d696e7420616d6f756e7420706572207478206578636565646564006044820152606401610c34565b600a8054610b0390612650565b61146b6118a3565b601455565b6114786118a3565b60138054911515620100000262ff000019909216919091179055565b60006001600160a01b0382166114bd576040516323d3ad8160e21b815260040160405180910390fd5b506001600160a01b031660009081526005602052604090205467ffffffffffffffff1690565b6114eb6118a3565b610f066000611d37565b6114fd6118a3565b600e55565b61150a6118a3565b611512611c24565b600061151c610bd0565b600f5490915061152c84836126f4565b11156115645760405162461bcd60e51b815260206004820152600760248201526614dbdb191bdd5d60ca1b6044820152606401610c34565b61156e8284611c93565b50610f416001600955565b6115816118a3565b601255565b61158e6118a3565b601380549115156101000261ff0019909216919091179055565b606060038054610a2f90612650565b816115c181611932565b610b988383611d89565b836001600160a01b03811633146115e5576115e533611932565b6115f185858585611df5565b5050505050565b6116006118a3565b601380549115156401000000000264ff0000000019909216919091179055565b600b8054610b0390612650565b6060611638826118fd565b61169d5760405162461bcd60e51b815260206004820152603060248201527f455243373231414d657461646174613a2055524920717565727920666f72206e60448201526f37b732bc34b9ba32b73a103a37b5b2b760811b6064820152608401610c34565b601354610100900460ff16151560000361174357600c80546116be90612650565b80601f01602080910402602001604051908101604052809291908181526020018280546116ea90612650565b80156117375780601f1061170c57610100808354040283529160200191611737565b820191906000526020600020905b81548152906001019060200180831161171a57829003601f168201915b50505050509050919050565b600061174d611e39565b9050600081511161176d576040518060200160405280600081525061179b565b8061177784611e48565b600b60405160200161178b939291906128b6565b6040516020818303038152906040525b9392505050565b6117aa6118a3565b601055565b6117b76118a3565b600b610f4182826127a8565b60006109ff82610d63565b6001600160a01b03918216600090815260076020908152604080832093909416825291909152205460ff1690565b6118046118a3565b601555565b6118116118a3565b600c610f4182826127a8565b6118256118a3565b6001600160a01b03811661188a5760405162461bcd60e51b815260206004820152602660248201527f4f776e61626c653a206e6577206f776e657220697320746865207a65726f206160448201526564647265737360d01b6064820152608401610c34565b61189381611d37565b50565b61189e6118a3565b601155565b6008546001600160a01b03163314610f065760405162461bcd60e51b815260206004820181905260248201527f4f776e61626c653a2063616c6c6572206973206e6f7420746865206f776e65726044820152606401610c34565b600081600111158015611911575060005482105b80156109ff575050600090815260046020526040902054600160e01b161590565b6daaeb6d7670e522a718067333cd4e3b1561189357604051633185c44d60e21b81523060048201526001600160a01b03821660248201526daaeb6d7670e522a718067333cd4e9063c617113490604401602060405180830381865afa15801561199f573d6000803e3d6000fd5b505050506040513d601f19601f820116820180604052508101906119c39190612956565b61189357604051633b79c77360e21b81526001600160a01b0382166004820152602401610c34565b60006119f682611204565b9050336001600160a01b03821614611a2f57611a1281336117ce565b611a2f576040516367d9dca160e11b815260040160405180910390fd5b60008281526006602052604080822080546001600160a01b0319166001600160a01b0387811691821790925591518593918516917f8c5be1e5ebec7d5bd14f71427d1e84f3dd0314c0f7b2291e5b200ac8c7c3b92591a4505050565b6000611a9682611cc8565b9050836001600160a01b0316816001600160a01b031614611ac95760405162a1148160e81b815260040160405180910390fd5b60008281526006602052604090208054338082146001600160a01b03881690911417611b1657611af986336117ce565b611b1657604051632ce44b5f60e11b815260040160405180910390fd5b6001600160a01b038516611b3d57604051633a954ecd60e21b815260040160405180910390fd5b8015611b4857600082555b6001600160a01b038681166000908152600560205260408082208054600019019055918716808252919020805460010190554260a01b17600160e11b17600085815260046020526040812091909155600160e11b84169003611bda57600184016000818152600460205260408120549003611bd8576000548114611bd85760008181526004602052604090208490555b505b83856001600160a01b0316876001600160a01b03167fddf252ad1be2c89b69c2b068fc378daa952ba7f163c4a11628f55a4df523b3ef60405160405180910390a45b505050505050565b600260095403611c765760405162461bcd60e51b815260206004820152601f60248201527f5265656e7472616e637947756172643a207265656e7472616e742063616c6c006044820152606401610c34565b6002600955565b600082611c8a8584611edb565b14949350505050565b610f41828260405180602001604052806000815250611f28565b610b98838383604051806020016040528060008152506115cb565b60008180600111611d1e57600054811015611d1e5760008181526004602052604081205490600160e01b82169003611d1c575b8060000361179b575060001901600081815260046020526040902054611cfb565b505b604051636f96cda160e11b815260040160405180910390fd5b600880546001600160a01b038381166001600160a01b0319831681179093556040519116919082907f8be0079c531659141344cd1fd0a4f28419497f9722a3daafe3b4186f6b6457e090600090a35050565b3360008181526007602090815260408083206001600160a01b03871680855290835292819020805460ff191686151590811790915590519081529192917f17307eab39ab6107e8899845ad3d59bd9653f200f220920489ca2b5937696c31910160405180910390a35050565b611e00848484610bde565b6001600160a01b0383163b15610c0357611e1c84848484611f8e565b610c03576040516368d2bf6b60e11b815260040160405180910390fd5b6060600a8054610a2f90612650565b60606000611e558361207a565b600101905060008167ffffffffffffffff811115611e7557611e75612457565b6040519080825280601f01601f191660200182016040528015611e9f576020820181803683370190505b5090508181016020015b600019016f181899199a1a9b1b9c1cb0b131b232b360811b600a86061a8153600a8504945084611ea957509392505050565b600081815b8451811015611f2057611f0c82868381518110611eff57611eff612973565b6020026020010151612152565b915080611f1881612989565b915050611ee0565b509392505050565b611f32838361217e565b6001600160a01b0383163b15610b98576000548281035b611f5c6000868380600101945086611f8e565b611f79576040516368d2bf6b60e11b815260040160405180910390fd5b818110611f495781600054146115f157600080fd5b604051630a85bd0160e11b81526000906001600160a01b0385169063150b7a0290611fc39033908990889088906004016129a2565b6020604051808303816000875af1925050508015611ffe575060408051601f3d908101601f19168201909252611ffb918101906129df565b60015b61205c573d80801561202c576040519150601f19603f3d011682016040523d82523d6000602084013e612031565b606091505b508051600003612054576040516368d2bf6b60e11b815260040160405180910390fd5b805181602001fd5b6001600160e01b031916630a85bd0160e11b1490505b949350505050565b60008072184f03e93ff9f4daa797ed6e38ed64bf6a1f0160401b83106120b95772184f03e93ff9f4daa797ed6e38ed64bf6a1f0160401b830492506040015b6d04ee2d6d415b85acef810000000083106120e5576d04ee2d6d415b85acef8100000000830492506020015b662386f26fc10000831061210357662386f26fc10000830492506010015b6305f5e100831061211b576305f5e100830492506008015b612710831061212f57612710830492506004015b60648310612141576064830492506002015b600a83106109ff5760010192915050565b600081831061216e57600082815260208490526040902061179b565b5060009182526020526040902090565b60008054908290036121a35760405163b562e8dd60e01b815260040160405180910390fd5b6001600160a01b03831660008181526005602090815260408083208054680100000000000000018802019055848352600490915281206001851460e11b4260a01b178317905582840190839083907fddf252ad1be2c89b69c2b068fc378daa952ba7f163c4a11628f55a4df523b3ef8180a4600183015b81811461225257808360007fddf252ad1be2c89b69c2b068fc378daa952ba7f163c4a11628f55a4df523b3ef600080a460010161221a565b508160000361227357604051622e076360e81b815260040160405180910390fd5b60005550505050565b6001600160e01b03198116811461189357600080fd5b6000602082840312156122a457600080fd5b813561179b8161227c565b801515811461189357600080fd5b6000602082840312156122cf57600080fd5b813561179b816122af565b60005b838110156122f55781810151838201526020016122dd565b50506000910152565b600081518084526123168160208601602086016122da565b601f01601f19169290920160200192915050565b60208152600061179b60208301846122fe565b60006020828403121561234f57600080fd5b5035919050565b80356001600160a01b038116811461236d57600080fd5b919050565b6000806040838503121561238557600080fd5b61238e83612356565b946020939093013593505050565b6000806000606084860312156123b157600080fd5b6123ba84612356565b92506123c860208501612356565b9150604084013590509250925092565b6000806000604084860312156123ed57600080fd5b83359250602084013567ffffffffffffffff8082111561240c57600080fd5b818601915086601f83011261242057600080fd5b81358181111561242f57600080fd5b8760208260051b850101111561244457600080fd5b6020830194508093505050509250925092565b634e487b7160e01b600052604160045260246000fd5b600067ffffffffffffffff8084111561248857612488612457565b604051601f8501601f19908116603f011681019082821181831017156124b0576124b0612457565b816040528093508581528686860111156124c957600080fd5b858560208301376000602087830101525050509392505050565b6000602082840312156124f557600080fd5b813567ffffffffffffffff81111561250c57600080fd5b8201601f8101841361251d57600080fd5b6120728482356020840161246d565b60006020828403121561253e57600080fd5b61179b82612356565b6000806040838503121561255a57600080fd5b8235915061256a60208401612356565b90509250929050565b6000806040838503121561258657600080fd5b61258f83612356565b9150602083013561259f816122af565b809150509250929050565b600080600080608085870312156125c057600080fd5b6125c985612356565b93506125d760208601612356565b925060408501359150606085013567ffffffffffffffff8111156125fa57600080fd5b8501601f8101871361260b57600080fd5b61261a8782356020840161246d565b91505092959194509250565b6000806040838503121561263957600080fd5b61264283612356565b915061256a60208401612356565b600181811c9082168061266457607f821691505b60208210810361268457634e487b7160e01b600052602260045260246000fd5b50919050565b60208082526017908201527f6f6f707320636f6e747261637420697320706175736564000000000000000000604082015260600190565b60609190911b6bffffffffffffffffffffffff1916815260140190565b634e487b7160e01b600052601160045260246000fd5b808201808211156109ff576109ff6126de565b6020808252601b908201527f6e65656420746f206d696e74206174206c656173742031204e46540000000000604082015260600190565b6020808252600a908201526915d94814dbdb191bdd5d60b21b604082015260600190565b601f821115610b9857600081815260208120601f850160051c810160208610156127895750805b601f850160051c820191505b81811015611c1c57828155600101612795565b815167ffffffffffffffff8111156127c2576127c2612457565b6127d6816127d08454612650565b84612762565b602080601f83116001811461280b57600084156127f35750858301515b600019600386901b1c1916600185901b178555611c1c565b600085815260208120601f198616915b8281101561283a5788860151825594840194600190910190840161281b565b50858210156128585787850151600019600388901b60f8161c191681555b5050505050600190811b01905550565b6020808252601d908201527f204d6178204e465473205065722057616c6c6574206578636565646564000000604082015260600190565b80820281158282048414176109ff576109ff6126de565b6000845160206128c98285838a016122da565b8551918401916128dc8184848a016122da565b85549201916000906128ed81612650565b60018281168015612905576001811461291a57612946565b60ff1984168752821515830287019450612946565b896000528560002060005b8481101561293e57815489820152908301908701612925565b505082870194505b50929a9950505050505050505050565b60006020828403121561296857600080fd5b815161179b816122af565b634e487b7160e01b600052603260045260246000fd5b60006001820161299b5761299b6126de565b5060010190565b6001600160a01b03858116825284166020820152604081018390526080606082018190526000906129d5908301846122fe565b9695505050505050565b6000602082840312156129f157600080fd5b815161179b8161227c56fea2646970667358221220f43bc0aeb688c7a48b62ee2fb34e9c272464fbcab7d19687bda297d6e9919f2764736f6c63430008110033",
  "linkReferences": {},
  "deployedLinkReferences": {}
}